:040000006F2040032A
:10000400000000000000000090000020A204002076
:10001400A9BDF9F3900000200000000000000000DA
:10002400900000209000002000000000000000006C
:10003400900000200000000090000020000000005C
:1000440090000020900000209000002090000020EC
:1000540090000020900000209000002090000020DC
:1000640090000020900000209000002090000020CC
:1000740096050020900000209000002090000020B1
:1000840090000020900000209000002090000020AC
:1000940001A04111B7170040985F3AC6945F3247F8
:1000A400E39CE6FE32454101828073270080218B68
:1000B4009387818609CB7327008023A4E186984324
:1000C4005D9B731007800F100000371700409306E4
:1000D40070052300D704930680FA2300D7040F1079
:1000E40000008346B70493F6F60DA305D704230056
:1000F4000704732600809443A18AD18E73900680EE
:1001040023A401860F100000937605026384061869
:100114000347A700118B25E773270080218B09CBA8
:100124007327008023A4E18698435D9B73100780A6
:100134000F10000037170040930670052300D70402
:10014400930680FA2300D7040F1000008346A7000B
:1001540093E646002305D70023000704F326008016
:100164009843218B558F7310078023A401860F10A9
:1001740000001307004B010001007D176DFF73277A
:100184000080218B09CB7327008023A4E186984348
:100194005D9B731007800F10000037170040930613
:1001A40070052300D704930680FA2300D7040F10A8
:1001B40000007D892314A700010001000100010053
:1001C40023000704F32600809843218B558F731076
:1001D400078023A401860F10000073270080218B61
:1001E40009CB7327008023A4E18698435D9B731099
:1001F40007800F1000003717004093067005230096
:10020400D704930680FA2300D7040F1000000F10C0
:100214000000B726004013061005A383C680230000
:100224000704F32600809843218B558F73100780B1
:1002340023A401860F10000073270080218B09CBB3
:100244007327008023A4E18698435D9B7310078085
:100254000F10000037170040930670052300D704E1
:10026400930680FA2300D7040F1000008346B704D6
:1002740093E60608A305D704230007047327008028
:100284009C43A18BD98F7390078023A401860F1000
:100294000000828093760504638B06140347A7004D
:1002A400418B25E773270080218B09CB73270080BE
:1002B40023A4E18698435D9B731007800F10000010
:1002C40037170040930670052300D704930680FA7D
:1002D4002300D7040F1000008346A70093E606010D
:1002E4002305D70023000704F32600809843218BBD
:1002F400558F7310078023A401860F100000130785
:10030400007D010001007D176DFF73270080218BA4
:1003140009CB7327008023A4E18698435D9B731067
:1003240007800F1000003717004093067005230064
:10033400D704930680FA2300D7040F1000009376A5
:10034400F50193E606042314D7000100010001001F
:10035400010023000704F32600809843218B558F66
:100364007310078023A401860F1000001307600494
:100374006310E50473270080218B09CB7327008069
:1003840023A4E18698435D9B731007800F1000003F
:1003940037170040930670052300D704930680FAAC
:1003A4002300D7040F100000B72600400946B5B556
:1003B40073270080218B09CB7327008023A4E18657
:1003C40098435D9B731007800F100000371700409F
:1003D400930670052300D704930680FA2300D704FC
:1003E4000F100000B7260040130620053DB5732703
:1003F4000080218B09CB7327008023A4E1869843D6
:100404005D9B731007800F100000371700409306A0
:1004140070052300D704930680FA2300D7040F1035
:1004240000008356870093E6060C2314D700C5BB4F
:100434004111814601468145114506C6152CF32715
:100444000080A18B9386818689CBF327008023A427
:10045400F1869C42DD9B739007800F100000B71754
:100464000040130770052380E704130780FA2380F4
:10047400E7040F10000003C7670413671700238302
:10048400E70423800704732700809C42A18BD98F43
:100494007390078023A401860F100000B24041012D
:1004A40082808146014681451145D922F327008087
:1004B400A18B1387818689CBF327008023A4F1863F
:1004C4001C43DD9B739007800F100000B71700409A
:1004D400930670052380D704930680FA2380D704FB
:1004E4000F100000FD562396D70223800704F3263D
:1004F40000801C43A18BD58F7390078023A40186B1
:100504000F100000F3270080A18B89CBF327008014
:1005140023A4F1861C43DD9B739007800F10000019
:10052400B7170040930670052380D704930680FA1A
:100534002380D7040F10000083C6670493E61600D7
:100544002383D70423800704F32600801C43A18B54
:10055400D58F7390078023A401860F10000001A09B
:10056400BD473305F50201007D1575FD82804111FB
:1005740022C426C206C6AA84014463179400B2406A
:10058400224492444101828005041305803E4204C2
:10059400C13F4180DDB7B71700401307000323882C
:1005A400E702854723ACF18873002030411106C669
:1005B400A92DFDBF2303048015472303E480010014
:1005C4002302A480828083076480E3CE07FE230392
:1005D4000480828083076480E3CE07FE0345448061
:1005E400828083076480E3CE07FE2302A480828096
:1005F400411126C44AC24EC006C61377F50BAD4757
:10060400AA892E8995446306F70019456537653F25
:100614008D444E854537FD59FD1463983401B2402D
:10062400A24412498249410182801355090113757C
:10063400F50F453F2209CDB7011126CC06CEB704EC
:10064400080051371545BD37713769372AC6A53FAC
:1006540032459377150089EB136515001375F50F73
:10066400F240E24405618280FD14E9FC0145CDBFFE
:10067400397126DC4ADA4ED852D656D45AD25ED0D4
:1006840006DE62CE66CCB7E700E07D5783AA07009A
:1006940022C603AA470023A0E71823A2E718B71726
:1006A4000040130770052380E704130780FA2380B2
:1006B400E70483C74704930B75FFB684E20793FBF3
:1006C400FB0F8546AA892E8B328937240040E187A7
:1006D400015763FA76016308D500894613070002BF
:1006E4006313D5000157D98F93F7F70FB71C004058
:1006F4002382FC0411472303E4801305F00F5D3DBE
:10070400094CD135636D7C11B7050700DA9537873D
:100714000700795563F2E504B3879500636EF70229
:10072400370B0800A94733EB65016399F90689E49F
:100734008144513D26850DA0DA850945553D0509BD
:100744000345F9FFFD14050B693D81C49377FB0F45
:10075400FDF7DD3569FD7D55B717004013077005BA
:100764002380E704130780FA2380E70403C74704C0
:10077400418B2382E704F250B7E700E023A057112E
:1007840023A24711E25432445259C259325AA25A4E
:10079400125B825B724CE24C21618280A5476395B7
:1007A400F90685691309F00FB3069900B3742B0198
:1007B400B6941349F9FFB3749900856B33796901D1
:1007C400416B9387F9FFB3F7270199E363FC340185
:1007D40093D94900C147E3E637FF99BF0569C16969
:1007E4007D19D9B71305800D6388690113050002CB
:1007F4006384790113051008CA85DD3B353D21DD8D
:100804004E99B3843441D9B7DA852D45D533CA948A
:10081400E30099F205097D3BA30FA9FED5BF938799
:10082400F9FF93F7F70F6361FC0C83C71C041307EC
:100834003008631FF70437070800636BEB04B30742
:100844009B00B706100063F5D704334BEB008947D0
:100854006393F9068980D549E38C04ECDA8509456C
:10086400413B11090327C9FF91472320E480030773
:100874006480E34E07FE23033481FD17EDFBFD1472
:10088400110B81C49377FB0FE9FF7D3371F5E1B55B
:10089400B717004003C75704B707080013770702C8
:1008A40019E3B78707007955E378FBEA33079B0020
:1008B400E3FFE7F855B58547E382F9F2DA852D457C
:1008C400053B9389F4FFE38504E6293393F7390064
:1008D40091EB832604800327090093074900E39AD8
:1008E400E6E43E89CE84F1BFB5476396F90013056B
:1008F400900BC93135BDB1471305B00AE38BF9FE3E
:1009040099476391F904B7050800B365BB002D4509
:10091400C53181448D4BA149753963967401832790
:1009240004802320F9008504E39834FF832704809E
:1009340013172B01635507002312F900D5BB23229B
:10094400F900FDB39D476399F90281451305B0048D
:100954004531BD442320090023220900FD599D3956
:1009640093F77400CA9703C70700FD14398D2380D9
:10097400A700E39634FF6DBBA1476392F9046D3978
:100984008144630D0B008D479304C0036308FB008F
:100994009304000563048B01930440041375C50795
:1009A400E30895D81945393139390545213126856A
:1009B4000D3909453D314931E31C05D669BB9147E1
:1009C4006399F90013056006F536F53E13059009A1
:1009D4000DB7E38F09D4F154A9BB19CD91CD09CE3C
:1009E40081473387F500834607003307F500850701
:1009F4002300D700E317F6FE828019C991C909CAFA
:100A0400910583A7C5FF11057D16232EF5FEC5BFED
:100A1400828001C919C62A960505A30FB5FEE31DF8
:100A2400A6FE828081473307F5000307070019E318
:100A34003E8582808507C5BF01112E8626CAAA84F9
:100A4400131506019305F004418122CC06CE32C66B
:100A5400EF00F0512A8401C53246A685BD3F2285A8
:100A6400F2406244D24405618280854715C18DC13C
:100A740005C28147B306F5003387F50083C6060037
:100A8400034707006398E6008507E315F6FE8547EC
:100A94003E8582808147EDBF9307F6FFBE952A9677
:100AA4006313C5008280FD1583C715000505A30FD8
:100AB400F5FEFDB7AA87014581CF09CE3E9685078D
:100AC40003C7F7FF6317B700E39BC7FE05458280A2
:100AD40082800145828079719387418C22D480433E
:100AE40006D626D24AD04ECE52CC56CA5AC85EC674
:100AF4005DCCB7C4C901014B9389C18B9384F4378E
:100B0400173A0000130ACA3B973A0000938A0A3F37
:100B1400173900001309C9428357240085E35C4454
:100B2400631B0B0023A2F18C832BC4002285EF00EE
:100B340070505E84B9A82326FB00FDB783A7090083
:100B440082971C443307F5406376F5000327490078
:100B54001D8F2A9763E0E4089737000023A8073A1B
:100B64008355240003450400973000E0E7802050BB
:100B74005C405844A1CB0C4403264900AE97BE8682
:100B840063E4B70063E4C700B386C74014C4228B90
:100B94003A8459F097370000938747369C4B0947AE
:100BA4006370F706F917173700002321F736B250A0
:100BB400225492540259F249624AD24A424BB24BED
:100BC4004561828063150B0023A2E18CB1BF23260B
:100BD400EB0099BF03274A0209CF63EFA7003385CF
:100BE400A74083A70A016376F5009737000023AF77
:100BF400A730228B404471BF03274900BA97C5B779
:100C04009737000023A407305DB7411122C417347D
:100C14000000130424311C4006C626C24AC091C7F2
:100C240082979737000023AF072E9737000083C7BA
:100C34003749858B973400009384444895C397378C
:100C44000000A38F074683C774001547637AF70033
:100C5400052B83C77400F5178A07A2979C438297D4
:100C64001C4491C382971389018B0327090017360B
:100C740000000346B6289737000083C727289396B9
:100C84001700BA9683D60600C5CE9737000083C7EF
:100C9400E72663E1C70C97370000238107261C4031
:100CA400639507129737000083C7D74191CF83C755
:100CB400740093F7F70F89EB97370000A38407407C
:100CC400973001E0E78080589387C18B9C43638E03
:100CD400070E973700009387A726DC4317370000D9
:100CE4002326F722CD3B973700009387671DDC53FB
:100CF400E9CF1737000013076720184B9737000018
:100D040083C7571D6363F70C83C774001547636E6D
:100D1400F70A9737000083C7E73E918BDDE7032688
:100D240009009736000083C6761D63C6D70A22449D
:100D3400B240924402494101174302E06700C3C82C
:100D4400850793F7F70F973600002389F61AE3E433
:100D5400C7F225BF86073E97835507002310070077
:100D6400239C018A9387818C9C431735000003459B
:100D7400E51813172500BA979C43829783D7818B74
:100D8400173700000347871793C7F7FF7D8D931725
:100D94001700032709003E97835707005D8D231032
:100DA400A7009737000083C7671591C785071737D2
:100DB40000002305F714173700000347271497375B
:100DC400000083C7B713E378F7ECB240224492449F
:100DD4000249410182801397170032970357070095
:100DE4006DF7850799B7AD6737C70040BD07232660
:100DF400F7200F1000009737000093872710C84F83
:100E040083278726BD66BD0693C7F7FF99836A05C6
:100E14002326D7205D8D82804111B7170040985F4B
:100E24003AC6945F3247E39CE6FE32454101828034
:100E34001305F00F82800111973700009387073460
:100E440022CC03A4070C26CA06CE2AC42EC6854487
:100E540019E40145F2406244D2440561828083472B
:100E6400910003471400858B6304F7000044CDB759
:100E740019469305A10013052400C53EE31895FE09
:100E84000545C9BF138741981C439306001094C3BA
:100E940001000100010001001C4323A00700834658
:100EA400150003482500A2064208C296034805001F
:100EB400C296034835006208C29694D7834655000B
:100EC40003486500A2064208C29603484500C2963C
:100ED400034875006208C296D4D783469500034838
:100EE400A500A2064208C29603488500C29603489C
:100EF400B5006208C29694DB8346D5000348E5003A
:100F0400A2064208C2960348C5000345F500C296EE
:100F14006205AA96D4DB83C6150003C52500A20684
:100F24004205AA9603C50500AA9603C535006205C5
:100F3400AA9694CF83C6550003C56500A206420550
:100F4400AA9603C54500AA9603C575006205AA962C
:100F5400D4CF83C6950003C5A500A2064205AA9670
:100F640003C58500AA9603C5B5006205AA9694D365
:100F740083C6D50003C5E500A2064205AA9603C5AB
:100F8400C50083C5F500AA96E205AE96D4D3D44332
:100F9400F59AD4C3D44393E61600D4C3944393E69A
:100FA400160094C3BA879443D842058B59E3984EEC
:100FB40001452300E6009843184F2183A300E6006F
:100FC4009843184F41832301E6009843184F6183E7
:100FD400A301E6009C43D84F2302E600D84F2183A7
:100FE400A302E600D84F41832303E600D84F618370
:100FF400A303E60098532304E60098532183A30433
:10100400E600985341832305E60098536183A305C2
:10101400E600D8532306E600D8532183A306E6004E
:10102400D85341832307E600DC53E183A307F6008A
:10103400828001008DBF138781981443411122C41B
:101044009C5E4AC006C6998326C2858B3A8413895E
:101054004198D1C79C5E973400009384240693F78B
:10106400F7F99CDE173700000347A705930700082C
:10107400631BF700832709009C4393F70704173782
:1010840000002300F70483C7040093F707048DC30B
:101094009387C18B9C4382979737000023A8A702AC
:1010A40083C7040093F7F70B173700002308F700F2
:1010B40083C7440093F707049DE38547173700006F
:1010C400A300F700938741999C43096798C71307C6
:1010D40000FC973600002385E6FED844F8D31C4074
:1010E400985F1183058B09CB985F3D9B98DF05477B
:1010F400973600002386E6FC985F1D83058B11CB91
:10110400985F1377F7F798DF8547173700002309AF
:10111400F7FA83270900D8430583058B19C7D843F9
:10112400759BD8C3D843799BD8C3B2402244924418
:10113400024941018280397106DE16DC1ADA1ED8B2
:101144002AD62ED432D236D03ACE3ECC42CA46C863
:1011540072C676C47AC27EC0F93DF250E25252534E
:10116400C2533255A255125682567247E24752482C
:10117400C248324EA24E124F824F2161730020307A
:1011840093874199944397370000938727F303C7C4
:101194000700058B11CB97370000238307F297379D
:1011A4000000A38F07F0828003C71700058B65F743
:1011B400F85271FF83C75700DDB71388819803275E
:1011C40008001C5F9583858BD1E709C61C5BBD8332
:1011D4002300F60085CA83270800985B46079357C7
:1011E40067016356070093E707C0C207C1830397EB
:1011F4000600C207C18709C7BA970947B3C7E70200
:101204002390F60085CD834715008DCB97360000DB
:1012140083C626EB93F606041387970089478DCA85
:101224003A9503470500854699471376F7066311F7
:10123400D60262076187B947634C07008327080019
:101244009C5FED838D8B17370000A30EF7E6814773
:101254003E8582808547EDBF411122C406C61384B2
:10126400419918402DE9AE877453FDFE3E85B28541
:1012740097370000238507E4973001E0E78040D2E8
:10128400938781989C43B70680009843558F98C3F1
:10129400D857719BD8D797370000A38307E29737B5
:1012A4000000A38D07E01C40094798C3144017377A
:1012B40000001307A7E083472700858B89EB83474A
:1012C4003700858BD9C397370000238B07DEB240E4
:1012D4002244410182808D47631EF50093878198E3
:1012E4009C43B70680009843558F98C3D857719B89
:1012F400D8D76DBF8547E31BF5FA5447F977FD1737
:10130400F58F5CC70F1000001C40096798C71307CE
:1013140000F8173600002305E6DA13878198104396
:10132400184231830D8B11E713076019F8D3D4C722
:10133400B5BF1842094631830D8B6315C7001307E7
:10134400E043EDB71307E01BD5B7FC52ADF741B747
:101354005D71A2C4A6C22A84130680022800AE844A
:101364009305100886C6CAC04EDE52DCEFF06FEA61
:101374003545973001E0E78000FF13838198832788
:1013840003009376F41F138EC19923A40700984B8E
:10139400938E4199370FFCFF1367F70398CBF84FEF
:1013A400130510F8B7020400137707E0558FF8CF40
:1013B4009843F576FD16758F98C39843B7063300A6
:1013C400930380251377F7E798C3984311497D1F4A
:1013D4001377F7E71367071098C303270E008549AF
:1013E400930F80021C47D58F1CC783A70E001307D9
:1013F400900D3400B8CB014793553700A69583C7A9
:10140400050013767700B3D7C740858BE1C38327E4
:10141400030083280E00239C07042390070603A8D7
:10142400C8021378D8FF23A6080383A807001378FB
:10143400F70793F808F833E8080123A0070103A885
:1014440047023368580023A2070383A80E0001480B
:1014540023A2780603DA07066307480303A80703F1
:10146400038A06001358F800620813588841635829
:101474000A0103A807031358F8002380060103D8C0
:1014840007061378F80F03AA480663060A0003DA6E
:101494008705E37F49FB03A847023378E80123A2C9
:1014A400070383870600635CF40003C805003396D2
:1014B400C9001346F6FF337606012380C5003E8635
:1014C40063D3A7002A861315860161850507137760
:1014D400F70F8506E312F7F3B6402644964406490F
:1014E400F259625A61618280938641999C42D8473D
:1014F4001316170163550602984713161701635014
:1015040006027D57B8D7173700001307279F584F97
:101514000507173600002321E6A0116798C79847EE
:101524000D83058B1DCB17370000034747B913679D
:101534001700173600002304E6B8130700F817361F
:101544000000230FE6B6214798C7138781981043FC
:101554005856719B1367170058D69847058B0DC7CB
:1015640017370000034797B51367170017360000B5
:10157400A306E6B4054798C71387819810435856C5
:10158400719B1367170058D698470983058B09E7A1
:1015940098470583058B21CF98471736000013061B
:1015A400E6B1138581980983058B630307101841FD
:1015B400184331830D8B75EBAC4B184E93F5050234
:1015C40003471700CDCD79EF13077006D8CF034733
:1015D400060013671700173600002301E6AE114713
:1015E40098C718415C57F19B93E717005CD79C425E
:1015F40098479316370163D606029736000083C6D0
:1016040066BFC18A17370000130747B7C5CE034723
:1016140087071367070297360000238DE6BC05672A
:1016240098C798479316270163D10602173700001D
:10163400034707A962076187635707000547973681
:101644000000238FE6A6096798C7984793160701F9
:1016540063D606029736000083C6D6B9858A173743
:1016640000001307A7B1ADCE034797071367270000
:1016740097360000A380E6B8216798C7828029D7EF
:1016840085456315B7001307B00689B78945631507
:10169400B7001307F0061DBF8D456315B700130788
:1016A40030072DB71307500715B71307600739BF65
:1016B400034736001367170017360000A301E6A09E
:1016C400094739BF834687070946BD8A6388C60030
:1016D400034787078D463D8BE313D7F4114725BF96
:1016E40083469707918AC9DA0347970713678700E8
:1016F40041B7397106DE16DC1ADA1ED82AD62ED482
:1017040032D236D03ACE3ECC42CA46C872C676C42D
:101714007AC27EC0D13BF250E2525253C253325588
:10172400A255125682567247E2475248C248324E78
:10173400A24E124F824F216173002030938741994A
:1017440098438567938707777CD39387C1999C4394
:1017540083A60709139656006358060083A6070953
:1017640013966600634406007453FDF2828061C1DF
:10177400AA870145DDCD8D07C207C183F19BC2074E
:10178400C18313074003636BF702138781A20843E5
:10179400138701A214436396A602172700001307B8
:1017A4002772185B014551C74111C20706C605459A
:1017B400DD8D0297B240014541018280138741A229
:1017C400F9B70357650035E303574500636FF70422
:1017D400B306F7402146637CD602032805009386AE
:1017E40087001D8FAA96611717260000035666719D
:1017F4002392E60023A006012393060014C12312BA
:10180400F500130786FF97260000239CE66E23133A
:10181400B5009725000083D5C56EB387F54017271B
:1018240000002310F76E210582800841ADB7014501
:101834008280828009CD938781A203A307009387C6
:1018440001A283A8070081469A8763E31701828077
:1018540003A807006369F50A6367A80A138787006A
:10186400E367E5FE03D66700216705076317E60013
:1018740003C7C1950507238EE1949725000093853E
:10188400E56703D6470003D7650023930700329723
:1018940042074183172500002315E5666388670224
:1018A400138541A208416303F50203D5660019EDCF
:1018B40083D7460023A0060121073E9621062392E2
:1018C400C60097270000239EE762B6879843E3008B
:1018D40017F9938641A29442E30BD7F68356670027
:1018E400BDF683D64700035647001843A106B296B7
:1018F4002392D70098C383D76500A1071727000058
:101904002311F7608280BE86C28781B703278511C1
:1019140063020712411122C406C68347C5008345EA
:10192400E5042A8493F7C70F2306F500834697003E
:101934000356C70013958601618563F2C508635B8E
:1019440005060345870093F6F607A304D70005466A
:1019540093E627006314C50093E617002306D4001A
:101964005C4389075CC3A30AB400032504112E86D3
:101974004C430905EFF06F86832784110346540115
:10198400D44303D7C700B296118FD4C32396E7007C
:101994008947A30DF400034764039727000083C716
:1019A40047536378F7048347C40093E7070123068A
:1019B400F40081A093E717002306F4006DB7937633
:1019C400F60F635D050203458700854513E627008E
:1019D4006314B50013E617002306C400A30AD40059
:1019E400A30407008547A30DF400832784119C43B7
:1019F400DDF3B240224401454101828093E71700A0
:101A04002306F400A30AD400A30407000325041149
:101A14004C430905EFE07FFC8327841103465401FE
:101A2400D44303D7C700B296118FD4C32396E700DB
:101A34008D4755BF05458280938781A39C434111FF
:101A440022C406C6858B2A84C5EF4165130525F596
:101A540097E001E0E78020D145C58347A500231521
:101A6400F50083270412BDE72320A4122322A41225
:101A740085472311F404232005008347640154415E
:101A84002316F5000347D4002304E5000547A30407
:101A9400E5001727000013076762184F1385170224
:101AA40015811C437D151375F50F9CC25C43DCC284
:101AB4001C479CC65C47DCC61C4B9CCA5C4BDCCAFE
:101AC4001C4F9CCE5C4FDCCE19CD938606021307C7
:101AD4000702C1BF8327441288C3835724042322E7
:101AE400A412850779B79727000083D7A7698507CC
:101AF400172700002318F768B2402244410182806E
:101B04008347C40023090400054593C747002306FF
:101B1400F400DDB78347850193F7E70FC5EF8347EB
:101B24009501CDEB034625018346C50009CA8345CB
:101B34006503172700000347D73963E7E50013F768
:101B4400060151CB014709C6C18A0357651C81C6EA
:101B54008356A51C369741C31307C71217250000E7
:101B64000355853EB335A70237460F0041111306CE
:101B74000624814622C426C206C67D543305A70224
:101B8400971002E0E78040C99727000083C7D73445
:101B9400B384A700972700009387475E03A78709AC
:101BA4008327070963F387003E84184375FB9387F3
:101BB400C18B9C43829781476364A400B307A4400C
:101BC400B2402244B3B7970093C7170092443E85AE
:101BD4004101828081473E85828093874199984361
:101BE4007C53FDFF8280797126D206D622D44AD056
:101BF4004ECE52CC56CA5AC85EC6834755030344D8
:101C04007513AA843E941374F40F9307400263F689
:101C140087001304B4FD1374F40F03AA841383AA76
:101C2400C413A38B841222865285D685971002E0B2
:101C3400E78000B9058915E503CBD4120149814930
:101C4400337B6403930B50024A865285D6859710E2
:101C540002E0E780E0B6058915C563916903137452
:101C6400F90F238B8412B250225492540259F24930
:101C7400624AD24A424BB24B456182808509E209ED
:101C840093D989410509E31179FDE1BF83278509CA
:101C940003560504797193D60701BD8EC206C1822D
:101CA400358E1357764093575640898B058B5D8F3D
:101CB40093573640918B5D8F93571640A18B5D8F60
:101CC40093171600C18B5D8F9317360093F70702A5
:101CD4005D8F931756009355860093F707041E06ED
:101CE4005D8F1376F60F518F93D7554013D6354039
:101CF400118A898BD18F13D67540D18F13D6154095
:101D0400218AD18F13961500418AD18F13963500FD
:101D140013760602D18F13965500137606049E059A
:101D2400D18F93F5F50FCD8FA20745465D8F33070D
:101D3400C70222D42A8426D252CC56CA032A841338
:101D4400832AC4135AC806D6369742074183935749
:101D54007740135557400989858BC98F13553740F0
:101D64001189C98F135517402189C98F131517007D
:101D74004189C98F1315370013750502C98F1315CF
:101D8400570093558700137505041E07C98F1377F1
:101D9400F70FD98F13D5354013D755401189098BC7
:101DA400498F13D57540498F13D515402189498F23
:101DB400139515004189498F139535001375050254
:101DC400498F13955500137505049E05498F93F5A6
:101DD400F50F4D8F2207D98FB387C7024AD04ECE55
:101DE4005EC662C4B697C207C18313D7774013D5C2
:101DF40057400989058B498F13D537401189498F7D
:101E040013D517402189498F139517004189498FAC
:101E14001395370013750502498F1395570093D511
:101E24008700137505049E07498F93F7F70FD98F21
:101E340013D5354013D755401189098B498F13D5D4
:101E44007540498F13D515402189498F1395150085
:101E54004189498F1395350013750502498F1395F0
:101E64005500137505049E05498F93F5F50F4D8FA5
:101E74002207D98FB387C702130650025285D6852D
:101E8400B697BD8E93940601C18033F6C402137BCA
:101E9400F60F971002E0E780A09205890DED8347C5
:101EA400D41201498149B3849702130C5002C180B2
:101EB4004A865285D685971002E0E78060900589AE
:101EC400937BF90F11C563863403850993F9F90FE0
:101ED4000509E31F89FD230B6413B2502254925465
:101EE4000259F249624AD24A424BB24B224C4561F2
:101EF40082805E8BCDB7797122D406D683C7350034
:101F04002E8423160100A307F10083C7450010089F
:101F140002C02307F10083C755008A8502C2A306C5
:101F2400F10002C402C802CA02CC02CEEFE09FF55F
:101F34000347F1018347040001456310F702034797
:101F4400E1018347140001456319F7000345D101FA
:101F5400834724001D8D13351500B250225445616A
:101F640082800111972700009387472122CC03A484
:101F7400870C26CA4AC84EC606CEAA841309250071
:101F8400854915C083C7140003473400858B630457
:101F9400F700405CFDB71946930544004A85EFE01D
:101FA400DFACE31835FF2285F2406244D244424953
:101FB400B249056182804111972700009387071C6D
:101FC40022C403A4870C26C24AC006C69304250073
:101FD400054901E82285B240224492440249410164
:101FE4008280A6851305A4023937E30525FF405CEA
:101FF400CDB74111972700009387471822C403A443
:10200400870C26C24AC006C693042500054901E888
:102014002285B24022449244024941018280A6852D
:102024001305A401C93DE30525FF405CCDB70000BD
:10203400971100209381C1C217610020130141FC54
:102044001305400097E5FF1F938585FB17060020C5
:10205400130606FE63FAC5008322050023A055007B
:1020640011059105E3EAC5FE173502001305C5A164
:10207400970500209385C5FB1386818663FAC50006
:102084008322050023A0550011059105E3EAC5FE4E
:1020940013858186972500209385C5206377B50035
:1020A400232005001105E36DB5FEFD42739002BCCB
:1020B4008D4273904280930280087390023097E2BD
:1020C400FF1F9382E2F393E232007390523037178A
:1020D4000040930770052300F704930780FA230058
:1020E400F7040F1000003C47B70600FAE116F58F1D
:1020F400B70600069506D58F3CC797220000938249
:10210400C2B773901234730020303D432A8763733F
:10211400C3029377F700BDEFADE5937606FF3D8AE2
:10212400BA960CC34CC30CC74CC74107E36BD7FE2C
:1021340011E28280B306C3408A0697020000969695
:102144006780A6002307B700A306B7002306B700DD
:10215400A305B7002305B700A304B7002304B70001
:10216400A303B7002303B700A302B7002302B700F9
:10217400A301B7002301B700A300B7002300B700F1
:10218400828093F5F50F93968500D58D939605017E
:10219400D58D61B7939627009702000096968682A4
:1021A400E78086FA9680C1171D8F3E96E374C3F8C4
:1021B400A5B7B717004003C777051377E70FA38BBD
:1021C400E704130700F8A38DE7043D47238CE704D5
:1021D40013075003A38CE7048280B717004083C71A
:1021E400E7020D8993F7C70FC98F73270080218BEE
:1021F4009386818609CB7327008023A4E1869842C5
:102204005D9B731007800F10000037170040130602
:1022140070052300C704130680FA2300C7040F10B7
:1022240000002307F70223000704732700809C4261
:10223400A18BD98F7390078023A401860F1000000F
:10224400828041112A83014E930E407E130F0019A0
:10225400930F400663E66E149308001913034006B7
:10226400B3781503854E0D4FA14F337365020D8965
:102274001335150063E0BE161308F6FF794672980D
:102284004208135808013307C70213D61700BE07C4
:1022940032976146B3F6C60213068070B386C6024F
:1022A4003697A166F58F42075D8FB716004083C746
:1022B400F60293F70708A307F1000346F10083C76A
:1022C400F60293F70708E394C7FE8347F100B716B5
:1022D400004093F7F70F63890714F3270080A18B5D
:1022E40093868186639807140F100000B717004087
:1022F400130670052380C704130680FA2380C704DD
:102304000F10000023AA070303C617031366060869
:10231400A388C70223800704732600809C42A18BF4
:10232400D18F7390078023A401860F1000001166DB
:10233400B71500407D16DC59C85DA98FF18FE5FF04
:10234400F3270080A18B89CBF327008023A4F18697
:102354009C42DD9B739007800F100000B71700406C
:10236400130670052380C704130680FA2380C7046C
:102374000F100000D8DB03C7170313670704A388F3
:10238400E70223800704732700809C42A18BD98F26
:102394007390078023A401860F10000041018280FE
:1023A4007D133368E3039308E016630E0800336873
:1023B400F3039308D016630808009378330093B8A6
:1023C40018009388D81633081E01131E0801135EE3
:1023D4000E0149B56393E503054863860800014887
:1023E400630303002A8871087298FD15131E0801FF
:1023F400C205135E0E01C181B5BD13F8150063F467
:10240400BF007908D5B713381800E5BF83C7F602B3
:1024140093F70708A307F1000346F10083C7F60208
:1024240093F70708E394C7FE8347F10093F7F70F88
:10243400F1DF65B5F327008023A4F1869C42DD9B80
:102444007390078055B55971E2C486D6A2D4A6D23A
:10245400CAD0CECED2CCD6CADAC8DEC6E6C2EAC06C
:102464006EDE2A8C02D6EF001016F3270080A18BB3
:10247400138D818691CBF327008023A4F1868327D3
:102484000D00DD9B739007800F100000B71700400C
:10249400130770052380E704130780FA2380E704F9
:1024A4000F10000003C7F7021377770FA387E70223
:1024B40003C7F70213678700A387E7022380070493
:1024C4007327008083270D00A18BD98F7390078019
:1024D40023A401860F100000F3270080A18B91CB69
:1024E400F327008023A4F18683270D00DD9B7390DE
:1024F40007800F100000B7170040130770052380F2
:10250400E704130780FA2380E7040F10000003C7D1
:10251400E7021377C70F2387E70203C7E7021367AE
:1025240017002387E702238007047327008083278B
:102534000D00A18BD98F7390078023A401860F10FF
:102544000000130780C13347E5029169938709E8C6
:10255400130650023D69B7440F0093840424856B2D
:10256400130BA004014A814A13047005FD19B347F3
:10257400F5023307C7023EC2930709A61309803E3A
:102584003347F7023AC43347250305493319890110
:10259400135939403345950293840BFAB39484015B
:1025A400811B3306C702B346F6023309E90236C675
:1025B400330B670313076055B3049502130500102A
:1025C4003309E902B346FB02130B80FAB3C4A40235
:1025D40036C8B347F902939634003719004036CC15
:1025E400930409043ECA73260080218A11CA732603
:1025F400008023A4C18603260D005D9A7310068013
:102604000F100000930770052380F40023806401F9
:102614000F100000034639051376860FA309C90479
:102624000346390513661600A309C9042380040070
:102634007325008003260D00218A498E73100680BD
:1026440023A401860F100000916CE17D73260080A5
:10265400218A11CA7326008023A4C18603260D0093
:102664005D9A731006800F10000093077005238095
:10267400F400238064010F1000000346390513663B
:102684000602A309C90403560905336696012318F3
:10269400C904035609053366B6014206418223186C
:1026A400C904238004007325008003260D00218AB9
:1026B400498E7310068023A401860F100000034680
:1026C4003905137606026305061603463905218A81
:1026D4006DDE6810152F73260080218A11CA7326B7
:1026E400008023A4C18603260D005D9A7310068022
:1026F4000F10000023808400238064010F10000069
:10270400034639051376F60DA309C90403463905B2
:1027140013660602A309C904035609053366960124
:102724002318C904035609053366B60142064182DB
:102734002318C904238004007325008003260D0098
:10274400218A498E7310068023A401860F1000008D
:102754000346390513760602630806100346390555
:10276400218A6DFE97E0FF1FE780A0922A8632CE71
:1027740097E0FF1FE780E0917246E30AC5FE035627
:1027840009053255336696012318C904712D034691
:102794003905218A6DDE035509050346290592474B
:1027A40033F5A9003386C90232951D8DA24763D53E
:1027B400A700B2476346F50E09466365560FC24744
:1027C400850A1316150093FAFA0F3346F60263547A
:1027D400A03A050609453346A602732500802189DF
:1027E40011C97325008023A4A18603250D005D99DA
:1027F400731005800F10000023808400238064017F
:102804000F1000000355C9022A964206418223167E
:10281400C902238004007325008003260D00218A49
:10282400498E7310068023A401860F10000039BD61
:1028340073260080218A11CA7326008023A4C186CE
:1028440003260D005D9A731006800F10000023808C
:102854008400238064010F100000034639051366C9
:102864000602A309C90435BD73260080218A11CA52
:102874007326008023A4C18603260D005D9A73107D
:1028840006800F10000023808400238064010F1051
:1028940000000346390513660602A309C90459BD9D
:1028A400E38F0AF073260080218A11CA7326008000
:1028B40023A4C18603260D005D9A731006800F10B1
:1028C400000023808400238064010F10000003466D
:1028D40039051375FC0F1376860FA309C904034643
:1028E4003905498EA309C904238004007328008094
:1028F40003260D00218A336606017310068023A483
:1029040001860F100000034639051D8A63178627C8
:1029140073260080218A11CA7326008023A4C186ED
:1029240003260D005D9A731006800F1000002380AB
:102934008400238064010F100000034639051165EB
:102944001376F60DA309C904034639051366060276
:10295400A309C90403560905498E2318C90403565B
:1029640009052165498E2318C904238004007325B1
:10297400008003260D00218A498E7310068023A44B
:1029840001860F1000000346390513760602630E14
:10299400062003463905218A6DDE6810B5217326A9
:1029A4000080218A11CA7326008023A4C1860326CD
:1029B4000D005D9A731006800F10000023808400C0
:1029C400238064010F100000034639051165137656
:1029D400F60DA309C9040346390513660602A309C3
:1029E400C90403560905498E2318C9040356090569
:1029F4002165498E2318C9042380040073250080AF
:102A040003260D00218A498E7310068023A40186B3
:102A14000F10000003463905137606026303061CF3
:102A240003463905218A6DFE97D0FF1FE780606653
:102A3400AA8C97D0FF1FE780C065E30C95FF03566F
:102A440009051165498E32552318C904F12E034630
:102A54003905218A6DDE73260080218A13858186DB
:102A640009CA7326008023A4C18610415D9A73109D
:102A740006800F10000023808400238064010F105F
:102A84000000034639051376F60DA309C904238013
:102A94000400732800801041218A336606017310F4
:102AA400068023A401860F1000000358090503467D
:102AB4002905E24733F809013386C90232983308FD
:102AC400F8401306800C3306C802D2473346F60298
:102AD4006355001505060948334606036351C014BF
:102AE4000358C9029308F00F13585800329863D65C
:102AF400081F094663734619F3270080A18B89CB0D
:102B0400F327008023A4F1861C41DD9B739007808A
:102B14000F10000037170040930770052300F704D7
:102B2400930780FA2300F7040F1000008356C702AE
:102B340089678117D58FC207C1832316F702230043
:102B44000704732700801C41A18BD98F73900780E1
:102B540023A401860F100000B6502654965406593B
:102B6400F649664AD64A464BB64B264C964C064D19
:102B7400F25D656182807D16B1B973260080218A79
:102B840011CA7326008023A4C18603260D005D9A12
:102B9400731006800F1000002380840023806401DA
:102BA4000F100000034639052DBB73260080218ACF
:102BB40011CA7326008023A4C18603260D005D9AE2
:102BC400731006800F1000002380840023806401AA
:102BD4000F1000000346390513660602A309C90451
:102BE40069B373260080218A11CA7326008023A446
:102BF400C18603260D005D9A731006800F10000035
:102C040023808400238064010F10000003463905EB
:102C140013660602A309C904C5B37D166DBD55CE5E
:102C24000358C902B308C040135858006357180B1F
:102C3400094663744605F3270080A18B89CBF327EB
:102C4400008023A4F1861C41DD9B739007800F1044
:102C54000000B7170040130770052380E70413072B
:102C640080FA2380E7040F10000003D7C7027D8B8E
:102C74002396E70223800704E9B573260080218A9E
:102C840009CA7326008023A4C18610415D9A73107B
:102C940006800F10000023808400238064010F103D
:102CA40000000356C9021376F60F33667601420616
:102CB40041822316C9022380040073280080104136
:102CC400218A336606017310068023A401860F103F
:102CD4000000050A137AFA0F39B2F3270080A18B9A
:102CE40089CBF327008023A4F1861C41DD9B7390DC
:102CF40007800F100000B7170040130770052380EA
:102D0400E704130780FA2380E7040F10000003D7B9
:102D1400C70216063A96420641822396C70299BF15
:102D2400914763EEB702171702001307671D8A0560
:102D3400BA959C41BA978287B717004003A7470BFF
:102D44001345F5FF698F23AAE70A03A7070B698FC9
:102D540023A8E70A03A7070A798D23A0A70A82807C
:102D6400B717004083A6470B1347F5FFF98E23AA34
:102D7400D70A83A6070B558D23A8A70A83A6070A9B
:102D8400758F23A0E70A8280B717004003A7470B7B
:102D9400498F23AAE70A03A7070B1345F5FF45BF8D
:102DA400B717004083A6470B1347F5FF758F23AA77
:102DB400E70A03A7070A598D4DB7B717004003A7C1
:102DC400470B498FEDB7B717004003D5870042057D
:102DD40041819377050491EB9377F5013755E80129
:102DE400130505803345F50282809377050C13079C
:102DF40000046397E7009377F50137459C1CCDB732
:102E04002165130505D0828037E700E01C43544355
:102E1400A183E206D58F1CC1FD572320F718232276
:102E2400F7180F100000828013178500B7E700E041
:102E340023A0E710618123A2A7108280B7F700E0E6
:102E44008847CC478280814737370040A14663C416
:102E5400C700328582800345B740E38EA6FE3385E2
:102E6400F5000345050085072304A740CDB797F770
:102E7400FF1F9387E75E9C431717002013078742C1
:102E84003E95636EE50017570020130767F76368E4
:102E9400A70017F7FF1F2325A75C3E858280FD57F7
:102EA400EDBF411122C406C62A84313F2947B30726
:102EB400E502B2408D83B3D7870222449507B3D786
:102EC400E70237370040C207C1832316F7404101A8
:102ED4008280716541111305052006C6D937B737BD
:102EE4000040130770F82381E7400D47A381E740B2
:102EF40013070004A380E74005472387E740B24057
:102F040041018280CC41411106C6328503C61500B9
:102F140083C5050022064D8E42068D6541861388C1
:102F240075A2630C060F6348C804138845A26306A0
:102F3400060B634AC800938535A26309B60623903D
:102F44000600294679A0138855A26308060B9385C9
:102F540065A2E316B6FEC1451D4663ECE50645468B
:102F6400198E63F3C7003E862390C60097150200AE
:102F7400938545FB89A8138895A26300060F634EC9
:102F8400060B1388A5A2630A060F938505A5E3180B
:102F9400B6FA99451D4663EEE502198E63F3C70040
:102FA4003E862390C6009385C18031A89D451D4669
:102FB40063E1E5022146198E63F3C7003E86239040
:102FC400C6009385C186BA9597E0FF1FE780E0A00D
:102FD4000146B240328541018280AD451D46E3EA97
:102FE400E5FE3146198E63F3C7003E862390C60082
:102FF400971502009385C5F6F9B7B1451D46E3EA76
:10300400E5FC3546198E63F3C7003E862390C6005F
:10301400971502009385C5F57DB7C1451D46E3EAC2
:10302400E5FA4546198E63F3C7003E862390C60031
:1030340097150200938545F079B7C1451D46E3EA2B
:10304400E5F84546198E63F3C7003E862390C60013
:10305400971502009385C5F2BDB7C1451D46E3EA45
:10306400E5F64546198E63F3C7003E862390C600F5
:1030740097150200938585EDB9B7B5451D46E3EA7A
:10308400E5F43946198E63F3C7003E862390C600E3
:1030940097150200938505E83DB797F6FF1F9386C1
:1030A400260C4146CD4517F5FF1F130565F86F80C3
:1030B400602B2D4535E703C505000947631EE5046C
:1030C400C841416803471500034505002207498F9D
:1030D400130528F0630AA700130548F06306A70048
:1030E400130818F063160703411106C63E8791C3FF
:1030F4000547CC453285131607012390E60041822B
:1031040097E0FF1FE780608DB24001454101828056
:10311400239006002945828023900600054582807D
:10312400828083C7850093F70702E9E3411106C64D
:1031340022C426C24AC003C9050009432E88854714
:10314400631C690203A345003284B68483471300D9
:1031540003430300A207B3E767004163130E13F0B0
:103164006383C703130333F0638B67040D68130889
:10317400289063850707A947B24022449244024934
:103184003E8541018280AD4765FB0547B547E36550
:10319400D7FE0325C8000546A28597E0FF1FE780F8
:1031A400C0830149938701899843814771D71843A4
:1031B40061D72686A2854A850297814775BFAD47A8
:1031C40045FF0547B547E369D7FA0325C800054617
:1031D400A28597E0FF1FE7804080E9B72244B24010
:1031E40092440249854741016F60E05BA1473E85F7
:1031F400828041677917630CE502411122C406C637
:1032040085472A84639AF50022852244B240938537
:10321400418841016F80E01F89476396F500854529
:10322400EFA0E05375D1B2402244410182808280F4
:10323400411122C42A844165938541887D1506C6BF
:10324400EF80201D170500001305E5FA0588EFA09F
:10325400404805C02244B24097F6FF1F93860601FA
:103264004146C14517F5FF1F130545F041016F8025
:10327400600FB240224401454101828009C523A860
:10328400A18801458280454582801147636EA70667
:1032940097160200938606D00A0536951841411107
:1032A40006C63697AE87B285028705476145639A9D
:1032B400E70005461385418797D0FF1FE780E0713B
:1032C4000145B2404101828005476145E39BE7FE29
:1032D400054613858187CDB705476145E393E7FE2E
:1032E40005461385C187C9BF05476145E39BE7FCD4
:1032F400054613850188C9B715476145E393E7FC83
:103304001546138581884DBF09458280411122C429
:103314002E849385418826C206C6AA84EF60604342
:10332400058915C197F7FF1F938747E483D7A70B38
:10333400A285B2402310F40022442685924401461B
:1033440041016F70801DB2402244924449454101BD
:10335400828011456FF02F8F411193962500AA8525
:103364002D4506C697D0FF1FE7808030B240014547
:1033740041018280411126C29394250022C44AC08F
:103384002A843289A686AA850146254506C697D091
:10339400FF1FE780E02DA6864A86A285294597D09F
:1033A400FF1FE780E02CB2402244924402490145C9
:1033B40041018280011122CC06CE3714004026CA76
:1033C4004AC84EC652C483447405034AB4058349AB
:1033D400840503499405EFE0DFDD8347A40593F4F6
:1033E400F40F137AFA0F93E71700230DF40493F9FB
:1033F400F90F1379F90FB717004003C7A705058B19
:103404006DFF03D5C705A38D4705238C3705A38C12
:103414002705A38B9704F2406244D2444249B2493F
:10342400224A0561828041119397050122C406C690
:10343400C1872E8463DD0700EF00F01119C1EF008E
:10344400700A2165218DB24022444101828093F7A4
:10345400150013C51500E5FB9397250163D00702FA
:10346400EF10811DFD3537F60200130606E089656D
:1034740003C54189EF00F0550965E9B79397150134
:103484000145E3D207FC17150200130565B6EFF0FA
:10349400B10E13060064916503C54189EF007053B2
:1034A40011654DB71D714946971502009385C5AF47
:1034B40017150200130585F486CE97D0FF1FE78009
:1034C400C05A01E917150200130545AFEFF0D10A00
:1034D40001A0B7F600E0795798CAFD57DCCA056722
:1034E400B7E700E023A0E7101306F00290C223A080
:1034F400E7180F1000001306C0038145480897D051
:10350400FF1FE780005197F7FF1F9387271B3ECAD1
:10351400896793870780231CF100B5472304F102D0
:10352400A167938707E03ECEB7070105938707108D
:103534003ED0ED472312F10285472303F10297079A
:1035440000009387A7E1BEC4970700009387C7E2F2
:10355400BEC68567938717D02315F102970700002D
:103564009387078E3EDAB7F5070097070000938725
:10357400A7E43EDE8146970700009387C7DD70000D
:10358400E1051945BEC097D0FF1FE780600E5808BB
:103594008147994670003E96034606008507050755
:1035A400A30CC700E398D7FED24791C70357810104
:1035B40085676373F70001A04808EF10A009AA8586
:1035C40001C9171502001305A5A0EFF0416901A078
:1035D400F640256182804111170500001305E5E4DA
:1035E40006C622C4EF108003138441892300A4007B
:1035F4001928034504002244B240130600328965A9
:1036040041016F00103D411106C6F3270080A18BD4
:103614001387818689CBF327008023A4F1861C437A
:10362400DD9B739007800F100000B71700409306CE
:1036340070052380D704930680FA2380D7040F10E3
:10364400000083C6F70293F6A60FA387D702238050
:103654000704F32600801C43A18BD58F7390078049
:1036640023A401860F100000F3270080A18B89CBCF
:10367400F327008023A4F1861C43DD9B739007800D
:103684000F100000B7170040930670052380D7047D
:10369400930680FA2380D7040F10000083C6F70234
:1036A40093E62600A387D70223800704F32600802D
:1036B4001C43A18BD58F7390078023A401860F1020
:1036C40000000545EFE07FB169311305407E814775
:1036D4000147814605468545EFE0BFB6B240014546
:1036E40041016F10802B2A86B305B04017150200E4
:1036F4001305059C6FF0A156011106CE19C5894723
:103704006301F502F24005618280680097D0FF1FD3
:10371400E780A02C17150200130585A6EFF0C165FC
:10372400D5B7680097D0FF1FE780202B171502003C
:103734001305C5A6E5B783D7418A6390A7022393EF
:10374400B18A2394C18A2395D18A2E861715020043
:1037540013050594BE856FF08150171502001305FB
:10376400A5946FF0616103574500011106CE83D71C
:10377400418A631FF702C167F917894503C50182AE
:1037840023A2F18A23A4018AEF00B045914503C521
:103794000182EF00104585471306F10085451305A6
:1037A4005030A307F100EF605107F24005618280B9
:1037B400171502001305458FEFF0015CFDB73D8935
:1037C4007D15954763E4A716171702001307878230
:1037D4000A053A951C41411122C406C6BA972E84A3
:1037E4008287171502001305258E2244B240410139
:1037F4006FF0815883C7250019476391E7022E852E
:103804009D3783456400171502001305E58CEFF01E
:103814000145171502001305E58DC1BF0D47E38A65
:10382400E7FEB24022444101828003C72500954748
:10383400E319F7FEC16703D7418AF91703D5A50039
:10384400630FF700EF601129171502001305858B2C
:10385400EFF08152171502001305458D79B72392B5
:10386400A18A83D7E5001306006403C5018223936C
:10387400F18A83D705012394F18A83D725018945E9
:103884002395F18ADD472396F182EF0090140966AF
:1038940013060690A14503C50182EF009013056647
:1038A400130606C8914503C50182EF009012035622
:1038B400E4008355A400171502001305E585EFF015
:1038C400013A49BF03C725008D47171502001305A8
:1038D400A586E318F7F411BF83C5250091476397C4
:1038E400F500171502001305A58601B79947639FD4
:1038F400F50022858D3D83456400170502001305FC
:10390400A57D2244B24041016FF061359547639A29
:10391400F50083471400F1F7171502001305058518
:10392400E9B5171502001305E584E1BF8280011192
:103934009397050126CA06CE22CCC187AE8463D0F4
:10394400070A03C5018201292A8439C58347050072
:103954001307000B6384E7061307000D639CE7025B
:103964008347250045476380E70465476394E7027E
:103974000348A500834795000347850083467500E7
:1039840003466500834555001705020013050568C5
:10399400EFF0E12C2285B9262165258DF2406244A1
:1039A400D24405618280034665008345750017058E
:1039B40002001305A568EFF0812AE9BF034745001B
:1039C4009307F007E318F7FC8355850017050200F9
:1039D400130585682396B182EFF0612865BF93F7DC
:1039E400150091CF17F6FF1F1306468F938501A587
:1039F40003C50182EF60613813C5140045B793F71E
:103A04002500ADCB13060064894503C50182EF0090
:103A1400407C930780F82302F10003D7C1828D47CD
:103A240063EBE7001705020013054564EFF0C134AA
:103A340013C52400A5B78547014781460546ED45D2
:103A440003D5418A2315F100EF50100B2AC66DD11E
:103A54000356A1004C0097D0FF1FE78000F82C000C
:103A640003D5418AEFF09F8A61D5ED452800EF50D8
:103A740070207DBF93F7850085C383C70182130738
:103A84004006814613064006994503D5418AEF60F6
:103A9400212813C5840019B793F705019DC3014775
:103AA40089460946814503D5418AEF60F104AA8518
:103AB400170502001305855CEFF0611A13C50401B4
:103AC400F1BD93F745000145E38A07EC03D5418A2C
:103AD400EF6011000566130606C8914503C501820F
:103AE400EF00206F13C5440055BD79711705000020
:103AF400130525E406D622D426D2EF00303293846F
:103B04000182994705442380A400231AF100100878
:103B140093074006854513055030231CF100230804
:103B24008100EF60814F17E6FF1F1306667DD545C0
:103B340013057030EF60614E138641829D45130575
:103B44006030EF60814D5008894513051031EF60F6
:103B5400C14C3008894513052031EF60014C9305B1
:103B640000050D45EF207007930500051145EF2072
:103B7400D00685457945EF20500630089145130558
:103B8400704023048100230681002308810002CCB5
:103B9400230A0100EF50C128300085451305004079
:103BA400EF5001287000854513051040EF50412760
:103BB4005008854513052040EF508126100885459F
:103BC40013055040EF50C1257D55EF50403B7D55C6
:103BD400EF701001EFF06FCC7D55EFF06FE517E655
:103BE400FF1F13066670D5450145EF50E02789474E
:103BF4002306F1008D472308F1009147230AF100C1
:103C040093870186984383C7470030008545014563
:103C14003ACC230EF10023048100EFF00FE770008B
:103C240085450545EFF06FE6100885450945EFF039
:103C3400CFE5500885450D45EFF02FE53008954553
:103C44001145EFF08FE4C1671387418AF9171CC34C
:103C5400232207001385C181EFF04FE21385C18948
:103C6400EF30717403C504008545F52EB25022541B
:103C740092544561828041111305800406C697C0A1
:103C8400FF1FE7808042371700408327870A8D454E
:103C94001305002093E707202324F70AEFF04F8849
:103CA400EFF02FA31705020013054575EFF0C10CC3
:103CB400EFF04FFFEFF03F92EF6041643D3597D056
:103CC400FF1FE780A08E23AC05FE1C4191E7010095
:103CD40001000CC18280BA8703A787FF6DFF23AC64
:103CE400B7FE82801DC18346E5FF1307F00F91479D
:103CF400639EE600411106C697E0FF1FE78080B38C
:103D0400B24081473E854101828095473E8582804D
:103D140001E9014582800145B2402244410182808B
:103D240095654111938505D022C4C98D2A84210546
:103D3400C2054205C181418106C697E0FF1FE780A5
:103D440000A371D9FD572320050023128500230306
:103D5400F5002105D1B71387C18A1C43411122C440
:103D640026C24AC006C601440149BA8489E7A1654E
:103D74008D2D0DC401A803C7E7FF6318A7021DC852
:103D8400A165D5249840832784FF6317E40223A602
:103D9400F18AFD57232C04FE230FF4FE2285B24042
:103DA4002244924402494101828011E03E8983A762
:103DB40087FF6DBF3E84E5BF232CF9FED9BFA1CD9B
:103DC400411122C406C62A849707002083C7D7124C
:103DD4002E856375F400894763E8870021370D4514
:103DE400B24022444101828083A785FF99E703C73B
:103DF400E5FF9307F00F6305F700ED351545CDB7E3
:103E0400238F85FE1385C18A7D3D22852244B240DD
:103E1400A165410189AC1545828023A6018A82806F
:103E24009387418C9C4399E33E85828003D7270086
:103E34006316B70003C70700E308A7FEDC47E5B72E
:103E4400BDCD797122D406D626D24AD04ECE0144B5
:103E54004147B3D78540858BB1CF120531472295B1
:103E64003305E5029387418B03A907008544B39486
:103E74008400C204C180BE892A990327090011C79E
:103E8400032549002EC60297B24531473304E402A4
:103E940083A709003E941C4489E7232009002322B8
:103EA4000900B2502254A58D02599254F2492E852C
:103EB400456182800504E31EE4F88144DDB72E8564
:103EC400828041111397050122C406C626C24AC046
:103ED40041872E84635E0700BD3D11C12135A16772
:103EE4003D8C2285B24022449244024941018280A1
:103EF400EDD9AA8701474146B356E440858A9DCA55
:103F04009207BA97B146B387D7029386418B03A928
:103F140006008544B394E400C204C1803E9983271B
:103F24000900032549008297232009002322090060
:103F3400258C45BF0507E311C7FC8144D5BF97070E
:103F440000209387A7F79C53411122C406C613840B
:103F5400018399C782971C403E9523A8A18229A07A
:103F64009387C18B9C43FDF70840B74703009387B1
:103F7400D73F3305F502B7A72600938737ECB24045
:103F840022443E9523A8A1824101828079C9938766
:103F9400C18B9C43797122D426D24AD04ECE52CCC6
:103FA40056CA5AC806D65EC63A8AB689328BAE8AD3
:103FB4002A8982979387418B9843BE840144B146F2
:103FC400C147B30BD40233067701104251E6C165F1
:103FD400938505F0414597D0FF1FE78040791DE5A3
:103FE40097070020938787ED9C5B2D4589C7114572
:103FF400814582972D45B250225492540259F24978
:10400400624AD24A424BB24B456182809387418CCB
:1040140098431DEF23A2A18C230005009C40054773
:104024003317870023260500232465012311E500A7
:1040340023224501DE9723A0270123A2570123A4AD
:1040440047010145E38909FA238089006DB73E875A
:104054005C47F5FF48C7C9B70504E314F4F62145E6
:1040640059BF094582809707002083C7F7E8637F1B
:10407400F5001387018B9317150008433E9583576A
:104084000500DD8D2310B500014582800D45828039
:104094009707002083C757E66371F5021387018BE6
:1040A40093171500084393C5F5FF3E958357050004
:1040B400FD8D2310B500014582800D4582801307D4
:1040C40005FF1377F70FFD4763E5E70AB146B3062B
:1040D400D5029387418B984389473697184359CB28
:1040E400011122CC4EC60544935945003D89331530
:1040F400A40013140501418026CA4E85AE84A2850E
:104104004AC806CE313B2A89814721CDA2854E85F6
:1041140041379387C18B9C4382979707002083D7AD
:1041240067E2338797022A84814613060064B3B793
:10413400970213050732B335E500BE95EFE0416DF4
:10414400B307850097060020938646DF3E87D44256
:1041540063E4A70063E4D7003387D7402324E9004E
:104164008147F2406244D2444249B2493E850561E6
:10417400828089473E858280011126CA06CE22CCE0
:104184004AC84EC6BD47894463EDA7023147330789
:10419400E5029387418B9C438944BA979C4395C31A
:1041A40005443314A400420441802E890145A285AC
:1041B4008539AA89814411C5A2850145D13D23A42D
:1041C4002901F240624426854249D244B24905613C
:1041D40082809707002083C737D26364F5000145C6
:1041E400828001119387C18B56C283AA070006CE31
:1041F40022CC26CA4AC84EC652C4638D0A0A170A7C
:104204000020130AAAD383244A00B74736FE9387B3
:1042140007C8AE899705002083D5C5D2BE94B3875D
:10422400C5022A8432898146B3B5C5021385073293
:10423400B337F50013060064BE95EFE0615D63EBF0
:10424400A406829A9705002083D5C5CFB38725039A
:10425400AA84130600648146B3B525031385073287
:10426400B337F500BE95EFE0A15AB3079500BE84BD
:1042740003274A0063E4A70063E4E700B384E7404C
:10428400CE852285713E01C504C505452DA09365E3
:1042940004F0C205C181414597D0FF1FE780204D3E
:1042A40005E597070020938767C19C5B81C7A285BA
:1042B400114582970145F2406244D2444249B249D1
:1042C400224A924A056182809387418C9C438DE304
:1042D40023A2A18C85472326050004C5231135019B
:1042E40023008500A300F5002322050079BFBA87C7
:1042F400D84775FFC8C7F9BF49C9797122D426D2F6
:104304004AD04ECE52CC56CA5EC662C466C206D6E7
:104314005AC83689328AAE89AA844144314C938A78
:10432400418B854C930B0003330B840303A70A00D2
:104334005A971C43B1E79375F400B395BC00135529
:104344004440C2055286C1811375F50F59350DC914
:1043540083A70A000145DA9784C323A237016304C3
:10436400090023008900B250225492540259F249A0
:10437400624AD24A424BB24B224C924C45618280F3
:104384000504E31374FB2145F9BF094582804111FB
:1043940022C426C24AC006C62A842E89B284153D88
:1043A400CA852285B53C05CD9705002083D585B9FE
:1043B400B38795022A84130600648146B3B5950237
:1043C40013850732B337F500BE95EFE0614448C06A
:1043D4000145B24022449244024941018280214570
:1043E400CDBF411122C426C24AC006C62A892E84E2
:1043F400EFF01FA3AA8419C123110500A2854A85E1
:1044040041399707002083C727AF6397270183D7D4
:10441400818B5D8C239C818A014591E01945B240D2
:10442400224492440249410182809307F00263E6E8
:10443400A7044111B14722C43304F50226C2938470
:10444400418B9C4006C6A297984389470DC3937736
:10445400F5008545B395F500C205C1811181513739
:104464009C40A29723A0070023A207008147B240E3
:10447400224492443E854101828089473E85828060
:10448400411106C622C4EFF0BF9911E50145B240BF
:104494002244410182809387C18B9C4300458297CB
:1044A40097070020938787A96368A402D843B74677
:1044B40036FE938606C83305A4403697E378E5FCB8
:1044C40013070064B335E50203D68700814633053C
:1044D400E502EFE0E13365BFD8433A94C1BF41112F
:1044E40006C623A0A18C0295B2409707002023A101
:1044F400A7A2014541018280994763E9B7008A0573
:10450400970700209387C7A1BE9588C18280411177
:104514007146814517050020130585A006C623A210
:10452400018C23A0018C23AE018A97C0FF1FE78072
:10453400404E130680028145170500201305C59BD4
:1045440097C0FF1FE780E04CEF509164970700206D
:1045540083C7379813D527008D8B3E958D47330538
:10456400F502854539051375F50F97070020238655
:10457400A79899473305F5021305052497D0FF1F23
:10458400E780E01E23AAA18A59C59947170600208F
:104594000346A6963306F60281451306062497C001
:1045A400FF1FE78000479387418B9C439387072431
:1045B40023A4F18C17070020034727940A07BA970E
:1045C40023A8F18AEFF07F85392B9387818C94435C
:1045D4009707002083C7579213972700369717062B
:1045E40000001306268610C3138717001377F70FEE
:1045F4000A073697170600001306E68C10C31387C4
:104604003700890793F7F70F8A0797050020A385DA
:10461400E58EB69790C3B24041018280970700208F
:1046240083C7978D170700200347278D63F1E7029F
:104634001387818C18439386170017060020A30D57
:10464400D68A93962700369708C33E8582809307BF
:10465400F00FE5BF1C416388071641777D8FB706CD
:10466400002089476312D71603574500630E0714C9
:10467400411122C419462A849305F00F690506C620
:1046840097C0FF1FE780004305478D476308E51285
:104694001C4481CB5858994763020712185C630F76
:1046A40007101306C0038145170500201305058173
:1046B40097C0FF1FE780E0351306C003A28517F5F6
:1046C400FF1F1305A57F97C0FF1FE780003117F771
:1046D400FF1F0357677F97F7FF1F9387277E19E70D
:1046E4001307001097F6FF1F2390E67E17F7FF1FAE
:1046F4000347A77D11E7054797F6FF1F2387E67C4D
:1047040017F7FF1F0357877C11E76D4797F6FF1FC5
:10471400239EE67A17F7FF1F0347377B11E71547F8
:1047240097F6FF1FA383E67A17F7FF1F0347277A3D
:1047340011E7054797F6FF1F238BE67817F7FF1F4E
:104744000347F77819E703C7F70097F6FF1FA3801D
:10475400E67817F7FF1F0347A77711E7354797F662
:10476400FF1F2387E67617F7FF1F0347B77619E77E
:104774001307800297F6FF1FA38EE67417F7FF1F37
:104784000347177519E71307D00297F6FF1FA38194
:10479400E6740347840119E71307C00397F6FF1F64
:1047A400238AE6729C5791C7829797F7FF1F239934
:1047B400A774FD57A387F1A0993B8147B2402244D7
:1047C4003E854101828089473E85828001114EC623
:1047D40097F9FF1F9389897683A7090006CE22CC17
:1047E40026CA4AC852C4829713090064B335250304
:1047F40003DA89008146528633052503EFE041013F
:1048040097F7FF1F9387476F804FAA84014563067C
:10481400940233858440636E940003A54900528654
:104824008146B335A9023305A902EFD0717E018D0B
:10483400269597F7FF1F23AD976CF2406244D2444C
:104844004249B249224A05618280011122CC0A857B
:104854002E84414697F501009385856906CEEFE0E5
:10486400A134180806043A94035504FF97F7FF1F70
:1048740083D7676DF2406244AA9737450F0013054A
:1048840005243355F5020561828097F7FF1F83D70E
:10489400876B51471D45637CF70279471945637857
:1048A400F7021307200315456373F7021307B004D7
:1048B4001145637EF700130740060D456379F70041
:1048C4001307600909456374F70013B5B70F8280B5
:1048D400011122CC06CE2A842EC6EFF04FE6B24553
:1048E400F240818D33A5A502229562441375F50F1C
:1048F40005618280011122CC06CE2A842EC6EFF0F7
:104904000FE4B245F240818D33A5A502229562449D
:104914004205418105618280011122CC06CE2A84A0
:104924002EC6EFF0CFE1B245F240818D33B5A5023A
:10493400229562440561828097F7FF1F9387075889
:10494400985739CB411122C426C206C6BE840297A9
:1049540017F7FF1F0357C75A2A8415CBBA87637307
:10496400A700AA87C207C183BA866373E400A2863C
:10497400C206C182958F5147635BF700DC5491C333
:104984008297EFF0704B97F7FF1F239B8756B24037
:104994002244924441018280828097F7FF1F9387CB
:1049A400E751DC57011106CEAA8581C72AC6829732
:1049B400B245C9C19C410545BDCBDC41ADCB83D7D4
:1049C4008500B5C783D7A500BDC383C7C500A5E3CC
:1049D400414617F5FF1F1305655697C0FF1FE78073
:1049E400C0FF97F7FF1F938767559C4323AEF18A57
:1049F40097F7FF1F83C7174E8DE79307800217F5BC
:104A0400FF1F035525543305F50237460F001306DF
:104A1400062481468145EFD0B15F97F7FF1FA38B32
:104A2400A74A170500001305A5DA553C0145F240D5
:104A34000561828097F7FF1F83C7A74913978701F2
:104A440061876354070497F7FF1F23A5074C97C793
:104A5400FF1F9387473917F7FF1F2321F74E7D5711
:104A640097F7FF1F23AEE74CB7873200938727A140
:104A740097F6FF1F23A8F64C97F7FF1F2386074CD2
:104A8400B7C7004023A4E726A9BF13F7170005CF33
:104A9400B7872003938707D017F7FF1F2324F74A0C
:104AA400B707C0A817F7FF1F232CF74897C7FF1FA6
:104AB4009387873617F7FF1F2322F74897F7FF1FBF
:104AC4002384074839BF617797F6FF1F239CE64686
:104AD40081CB9307003217F7FF1F2316F746C9B798
:104AE40093072003CDBF011122CC17F4FF1F130439
:104AF400E43C084406CE26CA4AC801E90545F2400A
:104B04006244D2444249056182805C58E5DB185C0A
:104B140075D77000854582971844B247E300F7FEC5
:104B24009305E00417F5FF1F0355053A97D0FF1FBF
:104B3400E780E0C317F7FF1F2320A73E61D117F6D4
:104B4400FF1F035666389305F00F97C0FF1FE780D9
:104B540040EC814417F9FF1F1309093A97F7FF1F27
:104B640083C7A7360326090263C1F402328597D0AE
:104B7400FF1FE78020CC014597F7FF1F23AE0738BE
:104B840097F7FF1F23AC07389DBF97F5FF1F83D509
:104B9400A533B38795020844185C898185043E9542
:104BA40008C2029765BF011156C297FAFF1F938A84
:104BB400EA3083A78A0022CC4AC84EC606CE26CA4B
:104BC40052C45AC0AA892E8432896385072203A756
:104BD4004A03630707147D476366A71497F4FF1F0E
:104BE4009384843103AA040263170A0A95659385A2
:104BF40015E017F5FF1F0355252D97D0FF1FE780FC
:104C040000B797F7FF1F23A9A7302A86630A051068
:104C140083A74A0303A58A0097F5FF1F83D5C52AF6
:104C24008981829783A78A0003AA040217F7FF1FCA
:104C34002326F72E8947639CF908C1476312F40EB3
:104C440097F5FF1F83D54528938505FC9147B3C588
:104C5400F5028A05D29503C705009307A005631DD5
:104C6400F70A83C715006399370B4A852286910595
:104C740097C0FF1FE78060D69C5052856393471509
:104C84000145F2406244D2444249B249224A924A1E
:104C9400024B05618280D850E38EE7F895659385D1
:104CA40025E017F5FF1F0355252297D0FF1FE78046
:104CB40000AC2A8A35C52A8683A74A0303A58A003D
:104CC40097F5FF1F83D5452089818297A5B78D4726
:104CD400639DF900C1476315F40497F5FF1F83D55D
:104CE400A51E938545FDF199B5B79147639AF900DF
:104CF4006318340397F5FF1F83D5051DA115E5B788
:104D0400C147639FF900A14763EC870097F5FF1F34
:104D140083D5851BC115C1BF9C5052856397470D30
:104D2400294585B71307F006568B6361A70A130A52
:104D340005FE1947334AEA0217F7FF1F0357C7183E
:104D440097FAFF1F938A4A1B330AEA023E9A83A703
:104D54004A026395470183A40A029DE49305E00493
:104D640017F5FF1F0355451697D0FF1FE78020A0B6
:104D7400AA845DD583274B0397F5FF1F83D5C514FC
:104D84002A8689815285829791451307A0058981D6
:104D940093972500A69783C607006393E60483C60A
:104DA4001700639C360385058A052286A6954A85E5
:104DB40097C0FF1FE78060C283A70A02E38297ECD3
:104DC400268597D0FF1FE780E0A65DBD1307E007A7
:104DD400E368A7F4130A05F985B783D5270045BF0F
:104DE40083A70A02E38E97F2268597D0FF1FE780F8
:104DF40060A43DB797F7FF1F938707108C538DD19D
:104E040091479306A0058983139727002E9703469D
:104E14000700E317D6F003461700631C3601850725
:104E24008A072286BE954A8597C0FF1FE780E0BAAD
:104E340081BD83572700C1BF97F7FF1F93870708DA
:104E4400984739C79C5FA9C705476313E504411117
:104E540022C417F4FF1F1304240A105006C60DC6FB
:104E6400485097F5FF1F83D52506898182970850FE
:104E740097D0FF1FE780009C97F7FF1F23AE07081A
:104E840097F7FF1F23AC0708B240224441018280F8
:104E94008280011117F7FF1F130747024EC68329AB
:104EA400870022CC26CA4AC806CE52C456C2AA8457
:104EB4002E843289638A09201C5FBA8A99EB2945BA
:104EC400F2406244D2444249B249224A924A0561BC
:104ED40082805C5BEDD7FD4763E9A70E97F9FF1F5E
:104EE4009389890183A70902B1CB03A58A0083A70B
:104EF40049026395A70689476393F408C147E31001
:104F0400F4FC17F5FF1F035525FC9147130505FC19
:104F14003345F5029317250003A509022286CA85A5
:104F24003E959307A0052300F500A3009500110505
:104F340097C0FF1FE78060AA014559B79305E004B5
:104F440017F5FF1F035545F897D0FF1FE780208210
:104F540097F7FF1F23A2A7FC49F995B783A74A0334
:104F640003A6090297F5FF1F83D505F68981829769
:104F740083A78A0017F7FF1F2322F7FAADBF8D47D7
:104F8400639EF400C147E31CF4F217F5FF1F0355B9
:104F9400A5F3130545FD9377C5FFBDBF9147639AFC
:104FA400F400E31E94F017F5FF1F0355E5F12115F6
:104FB400DDB7C147E395F4F0A147E3E287F017F5C5
:104FC400FF1F035565F04115F9B79307F00663EA2F
:104FD400A706930705FE1947B3C7E70217F7FF1F94
:104FE400035787EE17FAFF1F130A0AF1B387E70284
:104FF400BE9983270A02A9CF83274A02639A3707F7
:1050040003250A0291461308A005FD5593D72600EF
:10501400C207C183139727002A9703460700631D1D
:105024000607834817000356270063959806B306BE
:10503400D64063CF860485078A072286CA853E95B3
:10504400C5BD9307E007E3ECA7E6930705F979B735
:105054009305E00417F5FF1F035505E797C0FF1FED
:10506400E780E07097F7FF1F23A8A7EA51F581BDF9
:1050740083A74A0303260A0297F5FF1F83D5C5E4D5
:1050840089814E85829797F7FF1F23A937E98DBF42
:10509400A300B700B2869DBFB385860017F6FF1F35
:1050A400035686E29105130606FCE3FAC5E01306EF
:1050B40034001376C60F1106B29623000701A3002D
:1050C40097002311D70085BF97F7FF1F9387C7E287
:1050D4009453BE89A1C203A5090291461308A005F1
:1050E400FD5593D72600C207C183139727002A973B
:1050F4000346070063160605834817000356270076
:1051040063989800B306D640E3D786F2A300B700AD
:10511400B286C1BF8357C70017F5FF1F0345E5DA01
:105124009305E0043305F5024205418197C0FF1F52
:10513400E780E06397F7FF1F23A0A7DE49FD41B393
:1051440017F6FF1F035646D897F5FF1F83C5E5D70B
:10515400B385C502338686001106E3E2C5D681BF56
:1051640001458280011106CE2EC6EF80804D01C913
:10517400B245F2400355250005616FC02060F2403E
:10518400494505618280A38A018E238A018E23AE5C
:10519400018C23A0018E23A2018E23A4018E23ACB3
:1051A400018C23AA018C97F7FF1F938727DA370610
:1051B40084033707B40090D337C6070098C3130697
:1051C40006B83747A000D8C3D0D3370710004166CC
:1051D4009306070AB70550009308060194C723A451
:1051E400170393860501930816F8D4C723A617035B
:1051F400B706D007B7087F00130807051385060113
:10520400410723A81703B0C3930816009386060525
:1052140013861500D8CBF8C323A8070188CF23AE83
:10522400070023AA170323AC070223AE070223A413
:105234000704F0C7B4CB23AA0704ACCF23AE0705F9
:10524400B8D33707A000F8D71307000AB8DB130751
:10525400C01CF8DB37071400B8DF0547F8DF130775
:1052640010F8E8D323A4070623A0070823A2E7081D
:105274008280011126CAAA84214522CC06CE2E841E
:1052840032C636C43AC2EFE0BFA81DC9A2461247CF
:105294003246930700FD2300F5009947A3009500CB
:1052A4002301F5002303D500A303E5002312C50061
:1052B400AA8522856244F240D24405616FE03FB082
:1052C400F2406244D2440561828023AEA18C828084
:1052D40023A0A18E828023A2A18E828023A4A18EEA
:1052E4008280011122CC4AC806CE26CA2A890144EA
:1052F400B30489006368B400F2406244D244424972
:10530400056182802EC6EFE09FC393170501C18318
:10531400A183B2452380F4009307140093F7F70F99
:10532400850463F9B700CA9709042380A70013749E
:10533400F40F7DBF3E847DBFC16717F5FF1F035582
:10534400C5C9FD176304F502411117F6FF1F034693
:10535400E6D59385C18E06C6EF80A00DB240FD57F9
:1053640017F7FF1F231BF7C641018280828009C9FA
:1053740025151375F50F1335850E13451500828019
:105384000145828023900500C9C6797122D426D2B2
:105394004ECE52CC5AC806D64AD056CA5EC63684B9
:1053A400328AAE892A8B814463F34407B30794009D
:1053B40083C70700138914004209939A070193DAFB
:1053C4000A011359090163840A04CA976341FA0460
:1053D400B307240183CB07005E85513F0DC9938732
:1053E400FAFF2390F90063906B03130519002295CB
:1053F400B250225492540259F249624AD24A424B60
:10540400B24B45618280D694C204C18071BF01450C
:10541400C5B701458280411126C2AE8422C497F7E4
:10542400FF1F23A3C7BC97F7FF1F23ADB7BA97F796
:10543400FF1F23A7A7BA2A8441469305F00F2685A8
:105444004AC006C6054997B0FF1FE780A0666310EF
:10545400250597F7FF1F9387E7B7884BC14551355B
:1054640041469305F00F228597B0FF1FE7808064C3
:10547400854463189502224497F7FF1F938787B5E5
:10548400B24092440249C847C145410199BD4146D1
:105494008145268597B0FF1FE780C061E31225FD93
:1054A4004DBF41468145228597B0FF1FE78080604C
:1054B400E30395FCB24022449244024941018280B4
:1054C400411122C426C22E84AA84130600028145F7
:1054D40017F5FF1F130505B006C697B0FF1FE78039
:1054E400405397F7FF1FA38897AE97F7FF1F2381B9
:1054F40087BCEFC0A02A854719C181474945B240FE
:10550400224417F7FF1F2307F7AC9244410182801E
:10551400814781CD19C98547631BF50083C75500B1
:1055240093E707FCA382F50085473E85828089477F
:105534006317F50083C7550093F7F703E5B70D47E5
:105544008547E314E5FE03C755001377F703136794
:105554000704A382E500D1BF81478DC105C103C7FC
:1055640055009306000C85471377070C6308D70092
:10557400930600048D476303D70089473E858280E4
:10558400411122C4005D06C626C21DC8AA84085063
:1055940009C597C0FF1FE780E029485009C597C097
:1055A400FF1FE7802029085409C597C0FF1FE78023
:1055B4006028228597C0FF1FE780C02723AC040220
:1055C400B240224492444101828009ED97F7FF1FC3
:1055D40083C767A017F5FF1F130545A181CB13856A
:1055E400C18C828017F5FF1F130545A0828017F533
:1055F400FF1F0345459E828097F7FF1F9387879D72
:10560400C847828097F7FF1F9387C79C884B828087
:1056140097F7FF1F9387079CDC4B8843828097F79B
:10562400FF1F9387279BD84B1C4385071CC317F583
:10563400FF1F0345559A9307F00F6305F500916525
:105644006FE07FA28280011122CC06CE2E8432C666
:10565400EF80600F9147B245631FF5009387818EF9
:105664009C438DC303A30700630E03002285624499
:10567400F240056102839387018E9C4381C703A393
:105684004700DDB7F240624405450561828001119F
:1056940022CC2A840355450006CE26CA4AC84EC6E3
:1056A400EF70906935C52A89834405008349C50094
:1056B400C13D4A85EF80204703554400EF80E00355
:1056C40083C7418FB1CB6399970483C5518F2685D6
:1056D400EFF05FA919E1238A018E03554400EF809E
:1056E40080069147631FF5000357440097F7FF1F97
:1056F40083D7A78E6317F700FD5717F7FF1F231EE5
:10570400F78CF2406244D2444249B2490561828036
:1057140081499304F00F6DB79307F00FE38FF4FA08
:105724008346640003564400034524004E87A6853F
:10573400893665B779715EC6AA8B2E8552CC56CA56
:105744005AC806D622D426D24AD04ECEAE8A328B3E
:10575400368AEF70705E7DC1045D2A89E5C09C5075
:10576400614599C3130540039C5481C75105420503
:10577400418163050A00710542054181DC5081C7FE
:105784005D0542054181EFE0AFD82A8445C96146F1
:10579400814597B0FF1FE780C02797E9FF1F83C9A2
:1057A400E97D6394090083490900930700FD230000
:1057B400F400A947A30074012301F4002303640146
:1057C4008C50231254011305840191C908C47146F5
:1057D400930A440397B0FF1FE780202056858C541A
:1057E40091C948C45146930A450197B0FF1FE78009
:1057F400C01E5685630C0A0008C87146D285930AF8
:10580400C50197B0FF1FE780401D5685CC5099C550
:1058140048C85D4697B0FF1FE780201CA2854E85CF
:10582400EFE0EFD92254B2509254F249624AD24A7C
:10583400424BB24B4A850259456199B3B250225446
:1058440092540259F249624AD24A424BB24B4561E0
:10585400828001114EC6AA892E854AC806CE22CC62
:1058640026CA2E89EF70504D21C997E4FF1F83C4C7
:10587400E47099E0834405001945EFE06FC92A8478
:1058840005CD8145194697B0FF1FE780801893071F
:1058940000FD2300F400B947A30034012301F40000
:1058A40023122401A2856244F2404249B24926856A
:1058B400D24405616FE0AFD0F2406244D244424921
:1058C400B2490561828039715ECEAA8B2E8526DAB3
:1058D4004ED652D456D25AD006DE22DC4AD8AE84F2
:1058E400328BB68A3A8ABE8942C6EF70F04421CD23
:1058F4002A894145EFE0CFC12A8431C5414681451B
:1059040097B0FF1FE780E01017E5FF1F0345056709
:1059140019E103450900930700FD2300F400BD4786
:105924002301F400B247A30074012312940023045A
:105934006401A304540123054401A30534015CC498
:10594400A285EFE0CFC7F2506254D2544259B25903
:10595400225A925A025BF24B21618280797126D2DB
:10596400AA8439454AD04ECE06D622D42EC6B28950
:105974003689EFE0EFB921C1B2459307000D23103A
:10598400F500B1472A842312B5002301F500CE8522
:105994001905194697B0FF1FE78020042306240148
:1059A400A2852254B2500259F24913F5F40F9254CD
:1059B40045616FE0CFC0B250225492540259F2496B
:1059C4004561828017E7FF1F0347F7609307F00FD5
:1059D400630DF706411126C2AA84394522C406C6BE
:1059E4004AC0EFE0EFB22A8439C9930700FD2300CF
:1059F400F500A30095002301050097E5FF1F93859B
:105A0400E55E0D05194697B0FF1FE78000FD17E915
:105A1400FF1F1309295C83578900A28517E5FF1F1F
:105A24000345755B2315F400834719002306F4002E
:105A34002244B2409244024941016FE04FB8B2405F
:105A440022449244024941018280828001115AC059
:105A54002A8B314526CA4EC652C456C206CE22CC23
:105A64004AC8AE84B28A368ABA89EFE06FAA35CDC5
:105A74002A842685EF70502C11C50347C500A14721
:105A84006314F70417E9FF1F0349F954930700FD52
:105A94002300F4009D47A30064012301F4002312B2
:105AA4009400231354012314440123153401A285C3
:105AB4006244F240D244B249224A924A024B4A8595
:105AC400424905616FE0AFAF17E9FF1F0349595E13
:105AD400E31E0BFA9387419F9C439C47C5DBCE860C
